:020000040800F2
:1000000000002F20E93E0008A92E0008B12E0008AC
:10001000B92E0008C12E0008C92E0008393F00087B
:10002000000000000000000000000000E1D3010813
:10003000D12E00080000000071D301085DC6010840
:10004000393F0008393F0008393F0008393F0008B0
:10005000393F0008393F0008393F0008393F0008A0
:10006000393F0008393F0008393F0008393F000890
:10007000393F0008393F0008393F0008393F000880
:10008000393F0008DF2E0008393F0008393F0008DB
:10009000393F0008393F0008393F0008393F000860
:1000A000393F0008393F0008393F0008393F000850
:1000B000393F0008ED2E0008012F0008393F0008E5
:1000C000393F0008393F0008393F0008393F000830
:1000D000393F0008393F0008393F0008393F000820
:1000E000393F0008393F0008393F0008393F000810
:1000F000393F0008152F0008393F0008393F000834
:10010000393F0008393F0008393F0008393F0008EF
:10011000393F0008393F0008393F0008393F0008DF
:10012000393F0008393F0008393F0008393F0008CF
:10013000393F0008393F0008393F0008393F0008BF
:10014000393F0008393F0008393F0008393F0008AF
:10015000393F0008393F0008393F0008393F00089F
:10016000393F0008393F0008393F0008393F00088F
:10017000393F0008393F0008393F0008393F00087F
:10018000393F0008393F0008393F0008393F00086F
:10019000393F0008393F0008393F0008393F00085F
:1001A000393F0008393F0008393F0008393F00084F
:1001B000393F0008393F0008393F0008393F00083F
:1001C000393F0008393F0008393F0008393F00082F
:1001D000393F0008393F0008393F0008393F00081F
:1001E000393F0008393F0008393F0008393F00080F
:1001F000393F0008393F0008393F0008393F0008FF
:10020000393F0008393F0008393F0008393F0008EE
:10021000393F0008393F0008292F0008393F0008FE
:10022000393F0008393F0008393F0008393F0008CE
:10023000393F0008393F0008393F0008393F0008BE
:10024000393F0008393F0008393F0008393F0008AE
:100250003D2F0008512F0008393F0008652F000886
:10026000792F0008393F0008393F0008393F00085E
:040270008D2F0008C6
:1002800010B5054C237833B9044B13B10448AFF3D0
:1002900000800123237010BD20102A2000000000E0
:1002A000D4DF040808B5034B1BB103490348AFF37F
:1002B000008008BD0000000024102A20D4DF0408BC
:1002C00053B94AB9002908BF00281CBF4FF0FF31BD
:1002D0004FF0FF3000F0B0B9ADF1080C6DE904CE7D
:1002E00000F006F8DDF804E0DDE9022304B0704711
:1002F0002DE9F04F099D884604468E46002B4AD1D1
:100300008A4217465FD9B2FA82F64EB1C6F120038F
:1003100001FA06FEB740B44020FA03F343EA0E0E9A
:100320004FEA17481FFA87FC230CBEFBF8F108FBC5
:1003300011EE01FB0CF243EA0E439A4207D9FB1877
:1003400001F1FF3002D29A4200F2548101469B1A19
:10035000A2B2B3FBF8F008FB103300FB0CFC42EA3E
:10036000034294450BD9BA1800F1FF332CBF012486
:100370000024944502D9002C00F03F81184640EA41
:100380000140A2EB0C0200211DB1F2400023C5E99F
:100390000023BDE8F08F8B4205D90DB1C5E90001FE
:1003A00000210846F5E7B3FA83F100294ED1434511
:1003B000C0F01281824240F20F810846002DE8D041
:1003C000C5E9004EE5E7002A00F0AC80B2FA82F6FB
:1003D000002E40F0BB808B1A4FEA124EBCB20121B6
:1003E000020C80B2B3FBFEFC0EFB1C3342EA03435B
:1003F00004FB0CF29A420ED9FB180CF1FF382CBF0B
:100400004FF001094FF000099A4203D9B9F1000FEA
:1004100000F0EC80C4469B1AB3FBFEF80EFB1833C9
:1004200004FB08F440EA034294420BD9BA1808F1DD
:10043000FF332CBF01200020944202D9002800F095
:10044000D1809846121B48EA0C409DE7C1F1200676
:100450008B4008FA01F400FA01F922FA06F728FAAB
:1004600006F88A401F4320FA06F3380C23431FFA8C
:1004700087FC1C0CB8FBF0FE00FB1E8844EA084415
:100480000EFB0CF8A0450ED93C190EF1FF3A2CBF1B
:100490004FF0010B4FF0000BA04503D9BBF1000F4B
:1004A00000F0B880D646A4EB08041FFA83F8B4FB2A
:1004B000F0F300FB134403FB0CFC48EA0444A4459E
:1004C0000ED93C1903F1FF302CBF4FF001084FF05B
:1004D0000008A44503D9B8F1000F00F09F8003463F
:1004E00043EA0E40A4EB0C04A0FB02EC6445734607
:1004F000E04602D307D1F14505D2BEEB02036CEB17
:10050000070C0138E0465DB1B9EB030264EB080467
:1005100004FA06F622FA01F3CC401E43C5E9006452
:10052000002136E7B1FBF2FC010C144680B296467E
:1005300041EA08412026904640EA01431046B1FBBB
:10054000F2F1A3EB080341EA0C414BE7B740C6F1D7
:10055000200301FA06F221FA03F84FEA174E20FAB7
:1005600003F3BCB2B0401343020C190C80B2B8FBC9
:10057000FEF90EFB198841EA084109FB04F8884599
:1005800051D9791809F1FF3C2CBF4FF0010A4FF007
:10059000000A884502D9BAF1000F31D0A1EB080159
:1005A000B1FBFEF909FB04F80EFB19119BB243EAFB
:1005B0000143434535D2FB1809F1FF312CBF4FF001
:1005C000010A4FF0000A4345BBD2BAF1000FB8D17F
:1005D000A9F102013B44B4E7841A68EB030201204D
:1005E0009646EBE63A44A8F102082BE7ACF1020C80
:1005F0003B4410E702393B44A9E63A440238BEE6E0
:10060000A7EB0808A9F1020C4144B1FBFEF909FB74
:1006100004F8C9E7AEF1020E3C4444E7023B3C4417
:100620005EE749468DE7A1EB0801CC46B1FBFEF938
:1006300009FB04F8B8E700BF704700BF80B588B079
:1006400000AF3B462022002118464CF022FE2F4BE3
:100650002F4A1A602D4B00225A602C4B00229A60C0
:100660002A4B0022DA60294B00225A61274B0022D4
:100670001A61264B04229A61244B00221A77234BDD
:10068000002283F82420214B01229A621F4B002272
:1006900083F82C201D4B00225A631C4B00229A63C6
:1006A0001A4B002283F84020184B00229A66174B01
:1006B00000225A64154B00221A65144B0022DA639B
:1006C000124B002283F8542010480BF049FC0346DB
:1006D000002B01D001F082FD0E4B3B6006237B60B6
:1006E0000023BB600C4BFB6004233B6100237B6158
:1006F0003B46194605480BF01BFF0346002B01D073
:1007000001F06CFD00BF2037BD4680BD3C102A20A3
:10071000008002420008002E0000FFFF80B588B074
:1007200000AF3B462022002118464CF0B2FD304B72
:10073000304A1A602E4B00225A602D4B00229A60DC
:100740002B4B0022DA602A4B00225A61284B0022F0
:100750001A61274B04229A61254B00221A77244BF9
:10076000002283F82420224B01229A62204B00228F
:1007700083F82C201E4B00225A631D4B00229A63E3
:100780001B4B002283F84020194B00229A66184B1D
:1007900000225A64164B00221A65154B0022DA63B8
:1007A000134B002283F8542011480BF0D9FB034669
:1007B000002B01D001F012FD0F4B3B6006237B6044
:1007C0000023BB604FF6FF73FB6004233B610023F3
:1007D0007B613B46194606480BF0AAFE0346002BF8
:1007E00001D001F0FBFC00BF2037BD4680BD00BF3B
:1007F000C8102A20008102420100008080B5C4B0E8
:1008000000AF07F58873A3F58673186007F1FC0342
:1008100000221A605A609A60DA601A6107F11803C0
:10082000E022002118464CF034FD07F58873A3F54B
:1008300086731B681B685F4A934252D14FF4004293
:100840004FF00003C7E906234FF48043C7F8CC30CC
:1008500007F11803184615F09FF80346002B01D046
:1008600001F0BCFC544B1B680133534A1360524BDC
:100870001B68012B0ED1514BD3F88C304F4A43F4F7
:100880008063C2F88C304D4BD3F88C3003F4806316
:100890007B617B69494BD3F88C30484A43F00103B4
:1008A000C2F88C30454BD3F88C3003F0010207F5C9
:1008B0008873A3F580731A6007F58873A3F58073B6
:1008C0001B68C023C7F8FC300323C7F8003100239E
:1008D000C7F8043107F1FC03194639480EF0BEFB96
:1008E00062E007F58873A3F586731B681B68354AB9
:1008F000934259D14FF400424FF00003C7E9062359
:100900004FF48043C7F8CC3007F11803184615F0B0
:1009100043F80346002B01D001F060FC264B1B6816
:100920000133254A1360244B1B68012B16D1234B3E
:10093000D3F88C30214A43F48063C2F88C301F4BCB
:10094000D3F88C3003F4806207F58873A3F58273C3
:100950001A6007F58873A3F582731B68174BD3F8E9
:100960008C30164A43F00103C2F88C30134BD3F895
:100970008C3003F0010207F58873A3F584731A60C5
:1009800007F58873A3F584731B680823C7F8FC3048
:100990000323C7F800310023C7F8043107F1FC0333
:1009A000194607480EF05AFB00BF07F58877BD4689
:1009B00080BD00BF0080024254112A20000C024674
:1009C000000002420081024280B400AF00BFBD4679
:1009D0005DF8047B7047000080B500AF024900203D
:1009E0001EF0CEF800BF80BDC749000880B483B0B8
:1009F00000AF7860396000BF0C37BD465DF8047BFE
:100A00007047000080B500AF084A002108481BF07D
:100A1000B5FE0346074A1360074A002107481BF04A
:100A2000ADFE0346064A136000BF80BDC8FD040842
:100A3000450A000858112A20ECFD0408593F000817
:100A40005C112A2080B582B000AF786064201BF072
:100A500026FFFBE780B500AF064B074A1A60054842
:100A60000CF084FB0346002B01D001F0B7FB00BF64
:100A700080BD00BF60112A200010024080B485B004
:100A800000AF78607B681B680B4A93420ED10B4B1A
:100A9000D3F88830094A43F00203C2F88830074B84
:100AA000D3F8883003F00203FB60FB6800BF143703
:100AB000BD465DF8047B704700100240000C024602
:100AC00080B500AF0D4B0E4A1A600C4B00221A7114
:100AD0000A4B00225A71094B00225A61074B00222F
:100AE0009A61064B01221A6204480CF0A9FC0346E5
:100AF000002B01D001F072FB00BF80BD88112A20BD
:100B00000030024080B485B000AF78607B681B681D
:100B10000B4A93420ED10B4BD3F88830094A43F469
:100B20008053C2F88830074BD3F8883003F48053E1
:100B3000FB60FB6800BF1437BD465DF8047B70475F
:100B400000300240000C024680B58EB000AF07F1C5
:100B500008033022002118464CF09BFB00237B60E9
:100B6000214B224A1A6020480CF05CFD0346002B02
:100B700001D001F033FB0023BB6000233B74002352
:100B80007B7400237B610023BB610223FB61012393
:100B90003B6200237B6207F10803002219461248DA
:100BA0000CF062FD0346002B01D001F017FB00237F
:100BB0007B603B1D19460C480CF0F6FE0346002BEB
:100BC00001D001F00BFB07F108031022194606487B
:100BD0000CF04AFD0346002B01D001F0FFFA00BFE4
:100BE0003837BD4680BD00BFAC112A200018024630
:100BF00080B5C2B000AF07F58473A3F582731860A7
:100C000007F1F40300221A605A609A60DA601A61F0
:100C100007F11003E022002118464CF03AFB07F5DB
:100C20008473A3F582731B681B682A4A93424BD1D5
:100C3000294A4FF00003C7E904234FF48043C7F863
:100C4000C4304FF40043C7F8C83007F1100318460A
:100C500014F0A2FE0346002B01D001F0BFFA1F4B97
:100C6000D3F894301D4A43F04003C2F894301B4B34
:100C7000D3F8943003F04003FB60FB68174BD3F8C4
:100C80008C30164A43F00103C2F88C30134BD3F872
:100C90008C3003F0010207F58473A3F580731A60AA
:100CA00007F58473A3F580731B683023C7F8F4300D
:100CB0000323C7F8F8300023C7F8FC3007F1F4032A
:100CC000194607480EF0CAF900BF07F58477BD46FC
:100CD00080BD00BF0018024600800010000C0246D4
:100CE0000000024280B500AF084B094A1A60074B6A
:100CF0004FF000425A6005480CF08EFE0346002B70
:100D000001D001F06BFA00BF80BD00BFC0112A20E6
:100D10000014034080B500AF084B094A1A60074B26
:100D20004FF000425A6005480CF076FE0346002B57
:100D300001D001F053FA00BF80BD00BFEC112A20A2
:100D40000018034080B485B000AF78607B681B68F2
:100D5000164A93420FD1164BD3F88830144A43F009
:100D60008043C2F88830124BD3F8883003F08043B8
:100D7000FB60FB6813E07B681B680E4A93420ED150
:100D80000B4BD3F888300A4A43F40013C2F888307A
:100D9000074BD3F8883003F40013BB60BB6800BF77
:100DA0001437BD465DF8047B704700BF0014034054
:100DB000000C02460018034080B500AF0E4B0F4AEE
:100DC0001A600D4B4FF440325A600B4B01229A606F
:100DD000094B0022DA60084B00229A61064B002280
:100DE000DA6105480DF01AFD0346002B01D001F031
:100DF000F5F900BF80BD00BF18122A2000B00240E4
:100E000080B584B000AF78607B681B680E4A93425F
:100E100016D10E4BD3F888300C4A43F48023C2F825
:100E200088300A4BD3F8883003F48023FB60FB68DA
:100E30000022052176200CF083FA76200CF09AFA35
:100E400000BF1037BD4680BD00B00240000C024616
:100E500080B500AF204B214A1A601F4B00225A6018
:100E60001D4B4FF440729A601B4B0022DA601A4B04
:100E700000221A74184B00225A74174B00229A74DD
:100E8000154B10225A61144B01229A61124B012218
:100E9000DA61114B01221A620F4B01225A620E4B8A
:100EA00001229A620C4B0122DA620B4B01221A6377
:100EB000094B00225A63084B00229A63064B00221A
:100EC000DA6305480DF022FF0346002B01D001F044
:100ED00085F900BF80BD00BF80122A2000A4004019
:100EE00080B5C2B000AF07F58473A3F582731860B4
:100EF00007F1F40300221A605A609A60DA601A61FE
:100F000007F11003E022002118464CF0C2F907F562
:100F10008473A3F582731B681B682C4A93424FD1DC
:100F20004FF000624FF00003C7E904234FF08073D5
:100F3000C7F8A03007F11003184614F02DFD034642
:100F4000002B01D001F04AF9214BD3F8A030204A00
:100F500043F40073C2F8A0301D4BD3F8A03003F463
:100F60000073FB60FB681A4BD3F88C30184A43F0CF
:100F70000203C2F88C30164BD3F88C3003F0020217
:100F800007F58473A3F580731A6007F58473A3F5DE
:100F900080731B684FF44073C7F8F4300223C7F81E
:100FA000F8300023C7F8FC300323C7F800310923C9
:100FB000C7F8043107F1F403194606480EF04EF85D
:100FC00000BF07F58477BD4680BD00BF00A4004088
:100FD000000C02460004024280B582B000AF114B03
:100FE000D3F888300F4A43F00103C2F888300D4B24
:100FF000D3F8883003F001037B607B680022052171
:101000001D200CF09DF91D200CF0B4F900220521E3
:101010001E200CF095F91E200CF0ACF900BF08372B
:10102000BD4680BD000C024680B590B000AF07F110
:101030002C0300221A605A609A60DA601A61BE4B73
:10104000D3F88C30BC4A43F01003C2F88C30BA4B52
:10105000D3F88C3003F01003BB62BB6AB64BD3F8F5
:101060008C30B54A43F00203C2F88C30B24BD3F84F
:101070008C3003F002037B627B6AAF4BD3F88C3079
:10108000AD4A43F04003C2F88C30AB4BD3F88C3000
:1010900003F040033B623B6AA74BD3F88C30A64A6F
:1010A00043F00803C2F88C30A34BD3F88C3003F024
:1010B0000803FB61FB69A04BD3F88C309E4A43F0D8
:1010C0000403C2F88C309C4BD3F88C3003F004033B
:1010D000BB61BB69984BD3F88C30974A43F001034E
:1010E000C2F88C30944BD3F88C3003F001037B6151
:1010F0007B69914BD3F88C308F4A43F08003C2F860
:101100008C308D4BD3F88C3003F080033B613B690E
:10111000894BD3F88C30884A43F48073C2F88C3002
:10112000854BD3F88C3003F48073FB60FB68824BF3
:10113000D3F88C30804A43F40073C2F88C307E4B75
:10114000D3F88C3003F40073BB60BB687A4BD3F8E0
:101150008C30794A43F02003C2F88C30764BD3F8B8
:101160008C3003F020037B607B6800228021734871
:101170000EF04CF90022082171480EF047F90022C8
:10118000402170480EF042F900224FF481716E4800
:101190000EF03CF9002210216C480EF037F94FF4A4
:1011A0000043FB626A4B3B6300237B6307F12C0324
:1011B000194668480DF052FF4FF48073FB6202231A
:1011C0003B6300237B630223BB630023FB6307F1C4
:1011D0002C0319465F480DF041FF0823FB620023F2
:1011E0003B6300237B6307F12C03194653480DF042
:1011F00035FF8023FB6201233B6300237B630023D5
:10120000BB6307F12C0319464C480DF027FF4FF440
:10121000C053FB6202233B6300237B630323BB6356
:1012200007F12C0319464B480DF018FF0823FB6209
:1012300001233B6302237B630023BB6307F12C0381
:1012400019463F480DF00AFF0923FB6200233B6368
:1012500000237B6307F12C0319463F480DF0FEFE87
:101260004023FB6201233B6300237B630023BB63BA
:1012700007F12C03194633480DF0F0FE4FF480635C
:10128000FB6202233B6300237B630323BB630A23CC
:10129000FB6307F12C0319462E480DF0DFFE4023B7
:1012A000FB622E4B3B6301237B6307F12C03194642
:1012B00023480DF0D3FE4FF40073FB6200233B6321
:1012C00000237B6307F12C03194622480DF0C6FE6C
:1012D0004FF48173FB6201233B6300237B63002394
:1012E000BB6307F12C03194617480DF0B7FE102316
:1012F000FB6201233B6302237B630023BB6307F193
:101300002C03194611480DF0A9FE4FF40063FB624F
:101310000F4B3B6300237B6307F12C0319460748FF
:101320000DF09CFE1023FB6200233B6300237B63D4
:1013300007F12C03194613E0000C0246001C024280
:101340000010024200200242001802420014024231
:10135000000011100000024200240242000021108F
:1013600007480DF07BFE0022052111200BF0E8FF5D
:1013700011200BF0FFFF00BF4037BD4680BD00BF0E
:101380000008024280B500AF064B074A1A600548C4
:101390000EF085F80346002B01D000F01FFF00BFC0
:1013A00080BD00BFE4122A2000F0024080B584B066
:1013B00000AF78607B681B681A4A93422DD11A4BA4
:1013C000D3F88830184A43F48013C2F88830164B9B
:1013D000D3F8883003F48013FB60FB68124BD3F81A
:1013E0008830114A43F40013C2F888300E4BD3F80A
:1013F000883003F40013BB60BB6800220521842001
:101400000BF09EFF84200BF0B5FF00220521852004
:101410000BF096FF85200BF0ADFF00BF1037BD46E7
:1014200080BD00BF00F00240000C024680B500AF56
:10143000064B00221A6005480EF0B2F80346002B56
:1014400001D000F0CBFE00BF80BD00BFF0122A200B
:1014500080B485B000AF78600A4BD3F88C30094A6D
:1014600043F40033C2F88C30064BD3F88C3003F4CD
:101470000033FB60FB6800BF1437BD465DF8047B9A
:10148000704700BF000C024680B500AF1B4B1C4AE2
:101490001A601A4B1B4A5A60184B00229A60174B6D
:1014A0000122DA60154B00221A61144B00225A61A6
:1014B000124B00229A61114B0022DA610F4B00227D
:1014C0001A620E480EF0C0F80346002B01D000F05F
:1014D00085FE002109480EF0A7FC0346002B01D031
:1014E00000F07CFE002105480EF0E9FC0346002BCD
:1014F00001D000F073FE00BF80BD00BF34132A206E
:1015000000540040EC9D903080B500AF1B4B1C4A4E
:101510001A601A4B1B4A5A60184B00229A60174BEC
:101520000122DA60154B00221A61144B00225A6125
:10153000124B00229A61114B0022DA610F4B0022FC
:101540001A620E480EF080F80346002B01D000F01E
:1015500045FE002109480EF067FC0346002B01D030
:1015600000F03CFE002105480EF0A9FC0346002BCC
:1015700001D000F033FE00BF80BD00BF88132A20D9
:1015800000580040EC9D903080B500AF1B4B1C4ACA
:101590001A601A4B1B4A5A60184B00229A60174B6C
:1015A0000122DA60154B00221A61144B00225A61A5
:1015B000124B00229A61114B0022DA610F4B00227C
:1015C0001A620E480EF040F80346002B01D000F0DE
:1015D00005FE002109480EF027FC0346002B01D030
:1015E00000F0FCFD002105480EF069FC0346002BCD
:1015F00001D000F0F3FD00BF80BD00BFDC132A2046
:1016000000840040EC9D903080B5C6B000AF07F577
:101610008C73A3F58A73186007F5827300221A6031
:101620005A609A60DA601A6107F12003E022002113
:1016300018464BF02EFE07F58C73A3F58A731B68D2
:101640001B688B4A93424FD14FF040024FF000038A
:10165000C7E908230023C7F88C3007F12003184698
:1016600014F09AF90346002B01D000F0B7FD814B2E
:10167000D3F88C307F4A43F04003C2F88C307D4B66
:10168000D3F88C3003F04003FB61FB694FF4C04397
:10169000C7F804311223C7F808310023C7F80C310A
:1016A0000323C7F810310423C7F8143107F58273F8
:1016B000194671480DF0D2FC6E4BD3F89C306D4A40
:1016C00043F40013C2F89C306A4BD3F89C3003F407
:1016D000001207F58C73A3F580731A6007F58C73FD
:1016E000A3F580731B68BEE007F58C73A3F58A73BE
:1016F0001B681B68614A934256D14FF080024FF03D
:101700000003C7E908230023C7F8903007F120033E
:10171000184614F041F90346002B01D000F05EFD9D
:10172000544BD3F88C30534A43F08003C2F88C30CA
:10173000504BD3F88C3003F0800207F58C73A3F57F
:1017400082731A6007F58C73A3F582731B683023CC
:10175000C7F804311223C7F808310023C7F80C3149
:101760000323C7F810310423C7F8143107F5827337
:10177000194643480DF072FC3E4BD3F89C303D4A6D
:1017800043F48003C2F89C303A4BD3F89C3003F406
:10179000800207F58C73A3F584731A6007F58C73C8
:1017A000A3F584731B685EE007F58C73A3F58A7359
:1017B0001B681B68334A934255D14FF480024FF0A7
:1017C0000003C7E908230023C7F8983007F1200376
:1017D000184614F0E1F80346002B01D000F0FEFC9F
:1017E000244BD3F88C30234A43F00203C2F88C30E8
:1017F000204BD3F88C3003F0020207F58C73A3F56D
:1018000086731A6007F58C73A3F586731B68C02373
:10181000C7F804311223C7F808310023C7F80C3188
:101820000323C7F810310523C7F8143107F5827375
:10183000194615480DF012FC0E4BD3F8A0300D4A96
:1018400043F00203C2F8A0300A4BD3F8A03003F0F3
:10185000020207F58C73A3F588731A6007F58C7381
:10186000A3F588731B6800BF07F58C77BD4680BD64
:1018700000540040000C024600180242005800408C
:10188000001C0242008400400004024280B500AF08
:1018900000200EF061FB0346002B01D000F09EFCFF
:1018A0000EF07AFB0346002B01D000F097FC00BF3E
:1018B00080BD000080B500AF064B074A1A6005489E
:1018C0000EF07AFB0346002B01D000F087FC00BF2E
:1018D00080BD00BF30142A2000A0024080B586B031
:1018E00000AF786007F1100300221A605A607B682D
:1018F0001B685C4A934240F0B1805B4BD3F8883060
:10190000594A43F40043C2F88830574BD3F8883023
:1019100003F40043FB60FB68544B554A1A60534B79
:101920007D225A60514B00229A60504B0022DA60AF
:101930004E4B00221A614D4B4FF400225A614B4B23
:1019400002229A61494B4FF40032DA61474B4FF45F
:1019500040021A62454B08225A62444B08229A629E
:10196000424B4FF08042DA62404B00221A633F4BF9
:1019700000225A633D480CF0FBF80346002B01D0CF
:1019800000F02CFC7B68394A5A63384A7B68D3657F
:10199000102136480CF061FC0346002B01D000F00A
:1019A0001DFC344B344A1A60324B7C225A60314B56
:1019B00000229A602F4B4FF48062DA602D4B082290
:1019C0001A612C4B00225A612A4B00229A61294B42
:1019D0004FF40032DA61274B4FF440021A62254B74
:1019E00008225A62234B08229A62224B4FF480420B
:1019F000DA62204B00221A631E4B00225A631D48F4
:101A00000CF0B6F80346002B01D000F0E7FB0023F2
:101A10003B614FF480537B6107F110031946154871
:101A20000DF001F90346002B01D000F0D7FB7B68D5
:101A3000104A1A630F4A7B68D36510210D480CF0D9
:101A40000CFC0346002B01D000F0C8FB002207214C
:101A50008C200BF075FC8C200BF08CFC00BF183731
:101A6000BD4680BD00A00240000C024688142A201A
:101A7000D000024000152A205000024080B500AF7F
:101A8000184B194A1A60174B00225A60154B002256
:101A90009A60144B0022DA60124B00221A61114B3B
:101AA0004FF6FF725A610F4B4FF6FF721A620D4BE1
:101AB00000225A620B4B4FF400029A62094B00223B
:101AC000DA62084B00221A63064B00225A6305486B
:101AD00010F0FEFA0346002B01D000F07FFB00BFA0
:101AE00080BD00BF78152A200094004080B5C2B0A8
:101AF00000AF07F58473A3F58273186007F1F40350
:101B000000221A605A609A60DA601A6107F11003C5
:101B1000E022002118464BF0BCFB07F58473A3F5C7
:101B200082731B681B68364A934263D14FF480620C
:101B30004FF00003C7E904230023C7F8983007F1EA
:101B40001003184613F028FF0346002B01D000F0C5
:101B500045FB2C4BD3F8A0302A4A43F02003C2F8AF
:101B6000A030284BD3F8A03003F02003FB60FB68C3
:101B7000244BD3F88C30234A43F00203C2F88C3054
:101B8000204BD3F88C3003F0020207F58473A3F5E1
:101B900080731A6007F58473A3F580731B680223B2
:101BA000C7F8F4300223C7F8F8300023C7F8FC3038
:101BB0000023C7F800310E23C7F8043107F1F403FE
:101BC000194611480DF04AFA4FF40043C7F8F430B3
:101BD0000223C7F8F8300023C7F8FC300023C7F809
:101BE00000310223C7F8043107F1F403194606480F
:101BF0000DF034FA00BF07F58477BD4680BD00BF05
:101C000000940040000C02460004024280B58EB0F1
:101C100000AF3B1D3422002118464BF03AFB3A4BF3
:101C20003A4A1A60384B00225A60374B00229A60B9
:101C3000354B0022DA60344B00221A61324B03220A
:101C40005A61314B03229A612F4B0B22DA612E4BE2
:101C50000B221A622C4B40F22B325A622A4B40F272
:101C6000EB129A62284B40F23332DA62264B40F292
:101C7000F3121A63244B002283F83420224B0022F3
:101C800083F83520204B002283F836201E4810F0C0
:101C90004FFB0346002B01D000F0A0FA00237B602D
:101CA0004FF44873BB600023FB604FF4F0733B615B
:101CB00001237B61FF23BB610023FB614FF4806341
:101CC0003B6205237B624FF00053BB624FF44873C5
:101CD000FB624FF4F0733B63002387F8343000233A
:101CE00087F83530002387F836303B1D002219462F
:101CF000054810F0A5FC0346002B01D000F06EFA59
:101D000000BF3837BD4680BDC8152A200068014095
:101D100080B5C6B000AF07F58C73A3F58A73186061
:101D200007F5827300221A605A609A60DA601A61BD
:101D300007F12003E022002118464BF0AAFA07F52C
:101D40008C73A3F58A731B681B68974A934240F013
:101D500025814FF000024FF00203C7E908234FF43A
:101D60008023C7F8F4300323BB620423FB62812382
:101D70003B6308237B630823BB631423FB630023BB
:101D80003B6400237B644FF48023BB6407F1200392
:101D9000184613F001FE0346002B01D000F01EFA96
:101DA000824BD3F8A430814A43F08063C2F8A43058
:101DB0007E4BD3F8A43003F08063FB61FB697B4B5F
:101DC000D3F88C30794A43F01003C2F88C30774B4B
:101DD000D3F88C3003F0100207F58C73A3F58073F1
:101DE0001A6007F58C73A3F580731B686F4BD3F8EB
:101DF0008C306E4A43F00803C2F88C306B4BD3F83A
:101E00008C3003F0080207F58C73A3F582731A6017
:101E100007F58C73A3F582731B68644BD3F88C3081
:101E2000624A43F00403C2F88C30604BD3F88C3024
:101E300003F0040207F58C73A3F584731A6007F5A9
:101E40008C73A3F584731B68584BD3F88C30574AB6
:101E500043F04003C2F88C30544BD3F88C3003F07D
:101E6000400207F58C73A3F586731A6007F58C732F
:101E7000A3F586731B684D4BD3F88C304B4A43F067
:101E80002003C2F88C30494BD3F88C3003F0200289
:101E900007F58C73A3F588731A6007F58C73A3F5A7
:101EA00088731B684FF68173C7F804310223C7F8A3
:101EB00008310023C7F80C310323C7F81031082379
:101EC000C7F8143107F58273194639480DF0C6F882
:101ED0004FF60B73C7F804310223C7F8083100230B
:101EE000C7F80C310323C7F810310823C7F81431A1
:101EF00007F5827319462F480DF0B0F84023C7F854
:101F000004310223C7F808310023C7F80C3103233A
:101F1000C7F810310723C7F8143107F58273194643
:101F200025480DF09BF84023C7F804310223C7F879
:101F300008310023C7F80C310323C7F810310723F9
:101F4000C7F8143107F5827319461C480DF086F85E
:101F50004FF47843C7F804310223C7F8083100234F
:101F6000C7F80C310323C7F810310823C7F8143120
:101F700007F58273194612480DF070F8002205210A
:101F800087200BF0DDF987200BF0F4F90022052102
:101F900088200BF0D5F988200BF0ECF900BF07F58D
:101FA0008C77BD4680BD00BF00680140000C024632
:101FB00000100242000C02420008024200180242D5
:101FC0000014024280B500AF09F066FC00F0E7F8AB
:101FD00000F064F800F0DCF8FFF726F8FEF7FCFFED
:101FE000FEF79CFBFEF736FDFEF76AFDFEF7ACFD43
:101FF000FEF778FEFEF78EFEFEF7DEFEFEF728FF08
:10200000FFF7C0F9FFF712FAFFF73EFAFFF77CFA85
:10201000FFF7BAFAFFF73AFCFFF74CFCFFF72EFD8B
:10202000FFF7F4FD00F0E0F800F060FB00F0AEFB1D
:1020300000F0ECFC00F058FD01F078F801F020F918
:1020400001F078F901F0ACF901F062FA01F0BCFCA2
:1020500001F006FD01F050FD01F03EFFFEF7EEFA43
:1020600001F072FF01F069FF00210A4817F07AFCC5
:102070000346002B01D000F0B1F801228021064870
:102080000DF0C4F91AF02AFBFEF7BCFC1AF04CFB69
:1020900000BFFDE7B0192A20001C024280B59EB0A7
:1020A00000AF07F118036022002118464BF0F1F849
:1020B0003B4600221A605A609A60DA601A615A61DF
:1020C0004FF4403012F030F80346002B01D000F0FE
:1020D00085F812F019F82D4BD3F8F0302B4A23F085
:1020E0001803C2F8F0302F23BB614FF4A023FB612B
:1020F00081233B624FF480737B624FF480537B6497
:102100001023BB624FF08063FB6200233B6302231A
:102110003B6503237B650023FB650423BB655023DC
:102120003B6608237B660823BB660223FB6600230D
:102130003B6700237B6707F11803184612F010F97C
:102140000346002B01D000F049F81F233B60032316
:102150007B600023BB600023FB6000233B61002306
:102160007B613B460421184612F0D6FF0346002B44
:1021700001D000F033F800224FF08071002013F0FE
:10218000BDF900BF7837BD4680BD00BF000C0246D8
:1021900080B400AF00BFBD465DF8047B704780B5DA
:1021A00000AF12F0ADF812F0CBF8022012F048F8B0
:1021B0000346002B01D000F011F800BF80BD80B5B0
:1021C00082B000AF78607B681B68B3F1804F01D1AB
:1021D00009F092FB00BF0837BD4680BD80B400AF58
:1021E00072B600BF00BFFDE780B592B000AF07F147
:1021F0000C0300221A605A609A60DA601A615A6110
:102200003B1D00221A605A6007F12403184608F0AB
:10221000CBFE434B434A1A60414B04225A60404B69
:1022200000229A603E4B4FF08072DA603C4B2022D5
:102230001A613B4B02225A61394B00229A61384B9A
:102240000022DA61364B00221A62354B02225A62B2
:10225000334B00229A62324B4FF08052DA62304B9D
:1022600000221A632E4B08225A632D4B00229A63D8
:102270002B4B0022DA632A4810F0DCFB0346002BCC
:1022800001D0FFF7ABFF0123FB6001233B6101237A
:102290007B614FF00113BB61234BFB6107F10C0322
:1022A00041F2883219461E4810F07CFF0346002B8D
:1022B00001D0FFF793FF00237B600023BB603B1D31
:1022C0001946174811F0D8FE0346002B01D0FFF73E
:1022D00085FF134800F044F90346002B01D0FFF7B7
:1022E0007DFF002200210E4808F08DFE0346002BE2
:1022F00001D0FFF773FF0A4800F083F90346002B73
:1023000001D0FFF76BFF064800F0DBF90346002B16
:1023100001D0FFF763FF00BF4837BD4680BD00BF57
:1023200070162A2000140D420100000180B5C6B0CD
:1023300000AF07F58C73A3F58A73186007F58273F5
:1023400000221A605A609A60DA601A6107F120036D
:10235000E022002118464AF09CFF07F58C73A3F594
:102360008A731B681B68794A934240F0E9804FF0FA
:1023700080624FF00003C7E908230023C7F8DC3070
:1023800007F12003184613F007FB0346002B01D08A
:10239000FFF724FF6E4BD3F88C306D4A43F40013E3
:1023A000C2F88C306A4BD3F88C3003F40013FB6115
:1023B000FB69674BD3F89030654A43F01003C2F8CD
:1023C0009030634BD3F8903003F0100207F58C7314
:1023D000A3F580731A6007F58C73A3F580731B68EF
:1023E0005B4BD3F88C305A4A43F02003C2F88C3050
:1023F000574BD3F88C3003F0200207F58C73A3F50C
:1024000082731A6007F58C73A3F582731B68504BB7
:10241000D3F88C304E4A43F00403C2F88C304C4B56
:10242000D3F88C3003F0040207F58C73A3F58473A2
:102430001A6007F58C73A3F584731B68444BD3F8BB
:102440008C30434A43F00103C2F88C30404BD3F840
:102450008C3003F0010207F58C73A3F586731A60C4
:1024600007F58C73A3F586731B684FF48063C7F878
:1024700004310223C7F808310023C7F80C310323C5
:10248000C7F810310323C7F8143107F582731946D2
:1024900030480CF0E3FD4FF47073C7F804310223A9
:1024A000C7F808310023C7F80C310323C7F81031EF
:1024B0000A23C7F8143107F58273194625480CF032
:1024C000CDFD0E23C7F804310223C7F808310023DD
:1024D000C7F80C310323C7F810310A23C7F81431A9
:1024E00007F5827319461C480CF0B8FD0623C7F89F
:1024F00004310223C7F808310023C7F80C31032345
:10250000C7F810310A23C7F8143107F5827319464A
:1025100012480CF0A3FD0123C7F804310223C7F8C9
:1025200008310023C7F80C310323C7F81031032307
:10253000C7F8143107F58273194607480CF08EFD71
:1025400000BF07F58C77BD4680BD00BF00140D426B
:10255000000C02460014024200080242000002423F
:1025600080B584B000AF78600023FB6000220021BA
:10257000786809F0A8F80346002B02D00123FB601D
:1025800039E000220021786809F0F5F80346002BB5
:1025900002D00123FB602EE000220121786809F0BF
:1025A00092F80346002B02D00123FB6023E00022B7
:1025B0000121786809F0DFF80346002B02D00123DF
:1025C000FB6018E001220121786809F07CF80346DD
:1025D000002B02D00123FB600DE00122012178686D
:1025E00009F0C9F80346002B02D00123FB6002E08A
:1025F000642009F0A1F9FB68DBB218461037BD462C
:1026000080BD80B586B002AF78600023FB600022F9
:102610000021786808F053FE0346002B02D0012306
:10262000FB6049E0072300934FF440730022002130
:10263000786808F014FF0346002B02D00123FB60EA
:102640003AE000220021786808F039FE0346002BAA
:1026500002D00123FB602FE001230093002300221E
:102660000021786808F0FBFE0346002B02D001230E
:10267000FB6021E0282009F05FF900220121786841
:1026800008F0C1FC0346002B02D00123FB6013E0DD
:1026900007F108030093002300220121786808F065
:1026A00073FF0346002B02D00123FB6004E03B7A5A
:1026B000012B01D00123FB60FB6818461037BD4693
:1026C00080BD80B584B000AF78600023FB6001223C
:1026D0000121786808F049FD0346002B01D0012351
:1026E000FB60FB6818461037BD4680BD80B500AF63
:1026F000074B084A1A60064B00225A60044816F03D
:1027000047F90346002B01D0FFF768FD00BF80BDED
:10271000CC162A2000080C4280B5BCB000AF78600F
:1027200007F11003E022002118464AF0B2FD7B6851
:102730001B68144A934221D14FF400224FF000034A
:10274000C7E904230023C7F8B43007F11003184683
:1027500013F022F90346002B01D0FFF73FFD0A4B8F
:10276000D3F88C30084A43F48023C2F88C30064BEF
:10277000D3F88C3003F48023FB60FB6800BFF03794
:10278000BD4680BD00080C42000C024680B59AB0E0
:1027900000AF07F14C0300221A605A609A60DA60B9
:1027A0001A615A619A6107F1380300221A605A606F
:1027B0009A60DA601A6100237B633B1D302200219E
:1027C00018464AF066FD4B4B4B4A1A60494B0022B3
:1027D0005A60484B7F229A60464BFF22DA60454B95
:1027E0004FF400121A61434B4FF000425A61414BC3
:1027F00000229A613F4B4FF08042DA613D4B00224C
:102800001A623C4B00225A623A4816F05FF90346BE
:10281000002B01D0FFF7E2FC0023FB640023BB6523
:102820000023FB6500233B6607F14C031946314842
:1028300016F052FD0346002B01D0FFF7CFFC07F145
:102840003803012219462B4816F066FA002387F850
:102850003830002387F83930002387F83A300023D6
:102860007B640023BB6407F1380301221946214829
:1028700016F0B6F90346002B01D0FFF7AFFC012399
:1028800087F83430012387F83530012387F8363054
:10289000002387F8373007F1340301221946154821
:1028A00016F0ACFA0346002B01D0FFF797FC00238B
:1028B0003B7100237B710023BB710023BB600023AD
:1028C000BB610023FB6100237B62012387F8283072
:1028D0004FF480733B633B1D01221946054816F0F7
:1028E00013FB0346002B01D0FFF778FC00BF6837CD
:1028F000BD4680BDE0162A200078004680B5C2B0F3
:1029000000AF07F58473A3F58273186007F1F40331
:1029100000221A605A609A60DA601A6107F11003A7
:10292000E022002118464AF0B4FC07F58473A3F5B1
:1029300082731B681B68324A93425BD14FF480223A
:102940004FF00003C7E904234FF48073C7F8E03069
:1029500007F11003184613F01FF80346002B01D0AF
:10296000FFF73CFC274BD3F8F030264A43F40043F2
:10297000C2F8F030234BD3F8A830224A43F40013B6
:10298000C2F8A8301F4BD3F8A83003F40013FB6043
:10299000FB681C4BD3F8D8301A4A43F40013C2F832
:1029A000D830184BD3F88C30164A43F00203C2F8E3
:1029B0008C30144BD3F88C3003F0020207F584738B
:1029C000A3F580731A6007F58473A3F580731B6801
:1029D0000423C7F8F4300223C7F8F8300023C7F8FF
:1029E000FC300023C7F8003107F1F403194606480C
:1029F0000CF034FB00BF07F58477BD4680BD00BFF7
:102A000000780046000C02460004024280B584B003
:102A100000AF3B1D00221A605A609A60304B314A69
:102A20001A602F4B4FF480025A602D4B00229A609F
:102A30002B4B0322DA602A4B00221A61284B00221A
:102A40005A61274B4FF080629A61254B0022DA6170
:102A5000234B00221A62224B00225A62204B002292
:102A60009A621F4B0722DA621D4B4FF080425A6375
:102A70001B4B00229A631A4B0022DA63184B002288
:102A80009A64174B0022DA64154B00221A65144B26
:102A900000225A65124B00229A65114B0022DA651A
:102AA0000F4B00221A660E4816F044FC0346002B1A
:102AB00001D0FFF793FB00237B604FF08053BB6096
:102AC0000023FB603B1D1946054816F064FD0346D4
:102AD000002B01D0FFF782FB00BF1037BD4680BD41
:102AE00010172A200030014080B584B000AF3B1D94
:102AF00000221A605A609A60304B314A1A602F4B9C
:102B00004FF480025A602D4B00229A602B4B032217
:102B1000DA602A4B00221A61284B00225A61274BA7
:102B20004FF080629A61254B0022DA61234B00222C
:102B30001A62224B00225A62204B00229A621F4BDB
:102B40000722DA621D4B4FF080425A631B4B002272
:102B50009A631A4B0022DA63184B00229A64174BCF
:102B60000022DA64154B00221A65144B00225A65C4
:102B7000124B00229A65114B0022DA650F4B00229E
:102B80001A660E4816F0D6FB0346002B01D0FFF75D
:102B900025FB00237B604FF08053BB600023FB606C
:102BA0003B1D1946054816F0F6FC0346002B01D0E4
:102BB000FFF714FB00BF1037BD4680BDA0172A20C9
:102BC0000038004080B5C4B000AF07F58873A3F5A6
:102BD0008673186007F1FC0300221A605A609A603D
:102BE000DA601A6107F11803E022002118464AF062
:102BF00050FB07F58873A3F586731B681B685C4A56
:102C000093424FD14FF400024FF00003C7E906236F
:102C10004FF48013C7F8DC3007F11803184612F0A0
:102C2000BBFE0346002B01D0FFF7D8FA514BD3F877
:102C3000A430504A43F48053C2F8A4304D4BD3F82B
:102C4000A43003F480537B617B694A4BD3F88C300A
:102C5000484A43F04003C2F88C30464BD3F88C30DE
:102C600003F0400207F58873A3F580731A6007F537
:102C70008873A3F580731B681C23C7F8FC300223FC
:102C8000C7F800310023C7F804310323C7F808311F
:102C90000523C7F80C3107F1FC03194636480CF040
:102CA000DDF95FE007F58873A3F586731B681B6881
:102CB000324A934256D14FF080724FF00003C7E979
:102CC00006234FF48033C7F8E03007F118031846A5
:102CD00012F062FE0346002B01D0FFF77FFA254B6E
:102CE000D3F89C30234A43F48043C2F89C30214BF4
:102CF000D3F89C3003F4804207F58873A3F5827300
:102D00001A6007F58873A3F582731B68194BD3F813
:102D10008C30184A43F48073C2F88C30154BD3F8CA
:102D20008C3003F4807207F58873A3F584731A60FE
:102D300007F58873A3F584731B680E23C7F8FC306E
:102D40000223C7F800310023C7F804310323C7F872
:102D500008310523C7F80C3107F1FC031946084870
:102D60000CF07CF900BF07F58877BD4680BD00BF39
:102D700000300140000C02460018024200380040BA
:102D80000020024280B582B000AF0F4BD3F89430E0
:102D90000D4A43F00403C2F894300B4BD3F894303F
:102DA00003F004037B607B6811F09AFA11F0A8FA33
:102DB00011F0B6FA00220F216FF001000AF0C0FAFC
:102DC00000BF0837BD4680BD000C024680B58EB0FE
:102DD00000AF786000233B630023FB622E4BD3F8E7
:102DE0009C302D4A43F00103C2F89C302A4BD3F8A3
:102DF0009C3003F00103FB60FB6807F1100207F150
:102E000014031146184612F009FD12F0CBFC38638A
:102E10003B6B224AA2FB03239B0C013BFB62204B32
:102E20004FF080421A601E4B40F2E732DA601C4AD3
:102E3000FB6A53601A4B00221A61194B00229A60F8
:102E4000174816F0E9FB034687F8373097F8373014
:102E5000002B18D1124816F037FC034687F837309C
:102E600097F83730002B0ED17B680F2B08D8002243
:102E700079682D200AF064FA0A4A7B68136002E040
:102E8000012387F837302D200AF074FA97F837308D
:102E900018463837BD4680BD000C024683DE1B4312
:102EA00030182A205028232080B400AF00BFFDE74F
:102EB00080B400AF00BFFDE780B400AF00BFFDE706
:102EC00080B400AF00BFFDE780B400AF00BFFDE7F6
:102ED00080B400AF00BFBD465DF8047B704780B58D
:102EE00000AF40200CF0AAFA00BF80BD80B500AF53
:102EF00002480BF045F800BF80BD00BF00152A2036
:102F000080B500AF02480BF03BF800BF80BD00BFAA
:102F100088142A2080B500AF024816F0D6FE00BF04
:102F200080BD00BF30182A2080B500AF02480BF0EA
:102F3000D6FC00BF80BD00BF18122A2080B500AFAC
:102F400002480CF0FCFA00BF80BD00BFE4122A204A
:102F500080B500AF02480CF018FB00BF80BD00BF79
:102F6000E4122A2080B500AF02480FF0B1FA00BF8A
:102F700080BD00BFC8152A2080B500AF02480FF001
:102F8000A7FA00BF80BD00BFC8152A2080B500AFDA
:102F900002480DF096FB00BF80BD00BF30142A2010
:102FA00080B400AF01231846BD465DF8047B70472E
:102FB00080B582B000AF786039604AF039FA0346D4
:102FC00016221A604FF0FF3318460837BD4680BD01
:102FD00080B582B000AF78604FF0FF317868FFF7BE
:102FE000E7FF00BFFDE780B586B000AFF860B960CD
:102FF0007A6000237B610AE0AFF300800146BB6882
:103000005A1CBA60CAB21A707B6901337B617A6953
:103010007B689A42F0DB7B6818461837BD4680BD56
:1030200080B586B000AFF860B9607A6000237B613C
:1030300009E0BB685A1CBA601B781846AFF30080E1
:103040007B6901337B617A697B689A42F1DB7B683B
:1030500018461837BD4680BD80B483B000AF786095
:103060004FF0FF3318460C37BD465DF8047B7047C0
:1030700080B483B000AF786039603B684FF4005291
:103080005A60002318460C37BD465DF8047B704734
:1030900080B483B000AF7860012318460C37BD467A
:1030A0005DF8047B704780B485B000AFF860B9600C
:1030B0007A60002318461437BD465DF8047B7047DC
:1030C00080B586B000AF7860144A154BD31A7B6187
:1030D0007B693B61134B1B68002B02D1114B124AD9
:1030E0001A60104B1A687B6813443A699A4207D2F7
:1030F0004AF09EF903460C221A604FF0FF3309E0B4
:10310000084B1B68FB60074B1A687B681344054A31
:103110001360FB6818461837BD4680BD00002F209D
:10312000008000007C182A20B80A2C2080B594B0BA
:1031300000AF07F13C0300221A605A609A60DA601F
:103140001A6107F12C0300221A605A609A60DA6053
:1031500007F1200300221A605A609A603B1D00228A
:103160001A605A609A60DA601A615A619A61424B39
:10317000424A1A60404B00225A603F4B00229A603C
:103180003D4B4FF0FF32DA603B4B00221A613A4B65
:1031900000229A61384816F08EFB0346002B01D0BE
:1031A000FFF71CF8344816F02FFD0346002B01D022
:1031B000FFF714F80423FB6360233B6402237B6462
:1031C0000023BB640023FB6407F13C0319462A4833
:1031D00017F0F6F90346002B01D0FEF7FFFF00239E
:1031E000FB6202233B6300237B630023BB6307F185
:1031F0002C0300221946204816F030FF0346002B0E
:1032000001D0FEF7EBFF0223FB6201233B6307F1D2
:103210002C0304221946184816F020FF0346002B01
:1032200001D0FEF7DBFF00233B620023BB6207F106
:1032300020031946104818F0DDF90346002B01D091
:10324000FEF7CCFF60237B600023BB600023FB60A4
:1032500000237B613B1D08221946074816F09AFFA0
:103260000346002B01D0FEF7B9FF034800F0D8FA5F
:1032700000BF5037BD4680BD80182A2000040040A2
:1032800080B58AB000AF07F11C0300221A605A60B3
:103290009A603B4600221A605A609A60DA601A61AE
:1032A0005A619A61214B224A1A60204B00225A60CF
:1032B0001E4B00229A601D4B4FF0FF32DA601B4B11
:1032C00000221A61194B00229A61184816F0F3FA8D
:1032D0000346002B01D0FEF781FF0023FB61002392
:1032E0007B6207F11C031946104818F083F9034666
:1032F000002B01D0FEF772FF60233B6000237B6050
:103300000023BB6000233B613B460C221946074863
:1033100016F040FF0346002B01D0FEF75FFF034885
:1033200000F07EFA00BF2837BD4680BDCC182A20A9
:10333000000C004080B584B000AF3B1D00221A6035
:103340005A609A60144B154A1A60134B00225A6057
:10335000114B00229A60104B4FF6FF72DA600E4B51
:1033600000229A610C4816F057F90346002B01D051
:10337000FEF734FF00237B600023FB603B1D1946F2
:10338000054818F037F90346002B01D0FEF726FF59
:1033900000BF1037BD4680BD18192A20001000401C
:1033A00080B59AB000AF07F15C0300221A605A6042
:1033B0009A6007F1500300221A605A609A6007F180
:1033C000340300221A605A609A60DA601A615A6106
:1033D0009A613B4634220021184649F05AFF4A4B75
:1033E0004A4A1A60484B00225A60474B00229A60B2
:1033F000454B4FF6FF72DA60434B00221A61424B95
:1034000000225A61404B00229A613F4816F0FCF9B5
:103410000346002B01D0FEF7E1FE0023FB650023ED
:103420003B6600237B6607F15C031946364818F0BB
:10343000E1F80346002B01D0FEF7D0FE01233B65E7
:1034400001237B650023BB6507F150031A46012168
:103450002D4818F02BFA0346002B01D0FEF7BEFED4
:1034600000237B630023BB630023FB6300233B64D7
:1034700000237B640023BB640023FB6407F1340357
:1034800000221946204816F06FFD0346002B01D09C
:10349000FEF7A4FE07F13403042219461A4816F079
:1034A00063FD0346002B01D0FEF798FE00233B602E
:1034B00000237B600023BB600023FB604FF480533C
:1034C0003B614FF400537B610023BB610023FB6130
:1034D00000233B624FF000737B620023BB6200233A
:1034E000FB6200233B633B461946074818F044F94A
:1034F0000346002B01D0FEF771FE034800F090F95F
:1035000000BF6837BD4680BD64192A2000340140E1
:1035100080B59CB000AF07F1600300221A605A60CA
:103520009A60DA6007F1540300221A605A609A60C8
:1035300007F1380300221A605A609A60DA601A6153
:103540005A619A613B1D34220021184649F0A1FEC0
:103550003F4B404A1A603E4B04225A603C4B0022CB
:103560009A603B4B40F2E732DA60394B00221A6135
:10357000374B00225A61364B00229A61344816F0CC
:103580004BF80346002B01D0FEF728FE4FF4805382
:103590003B6607F1600319462D4816F00FFF0346FE
:1035A000002B01D0FEF71AFE294816F084F90346D5
:1035B000002B01D0FEF712FE00237B650023FB6584
:1035C00007F154031946224818F014F80346002B5B
:1035D00001D0FEF703FE6023BB6340F2E533FB63DB
:1035E00000233B6400237B640023BB640023FB6453
:1035F00000233B6507F1380300221946144816F0F2
:10360000C9FD0346002B01D0FEF7E8FD00237B60D7
:103610000023BB600023FB6000233B6100237B6130
:103620004FF40053BB610023FB6100237B633B1D10
:103630001946074818F0A0F80346002B01D0FEF702
:10364000CDFD034800F0ECF800BF7037BD4680BDEB
:10365000B0192A200040014080B58AB000AF7860E0
:1036600007F1140300221A605A609A60DA601A6146
:103670007B681B68244A93422ED1244BD3F89C309C
:10368000224A43F00203C2F89C30204BD3F89C300E
:1036900003F002033B613B691C4BD3F88C301B4A9F
:1036A00043F00403C2F88C30184BD3F88C3003F08D
:1036B0000403FB60FB6880237B610223BB61002362
:1036C000FB6100233B6202237B6207F1140319466E
:1036D0000F480BF0C3FC13E07B681B680D4A934254
:1036E0000ED10A4BD3F89C30084A43F00803C2F8C5
:1036F0009C30064BD3F89C3003F00803BB60BB68DA
:1037000000BF2837BD4680BD00040040000C0246C3
:1037100000080242000C004080B485B000AF786021
:103720007B681B68164A93420FD1164BD3F89C3026
:10373000144A43F01003C2F89C30124BD3F89C306B
:1037400003F01003FB60FB6813E07B681B680E4A04
:1037500093420ED10B4BD3F8A4300A4A43F4803382
:10376000C2F8A430074BD3F8A43003F48033BB6015
:10377000BB6800BF1437BD465DF8047B704700BFCF
:1037800000100040000C02460040014080B58AB0A5
:1037900000AF786007F1140300221A605A609A6043
:1037A000DA601A617B681B681A4A93422DD11A4B62
:1037B000D3F8A430184A43F40053C2F8A430164B8F
:1037C000D3F8A43003F400533B613B69124BD3F8A8
:1037D0008C30114A43F48073C2F88C300E4BD3F80E
:1037E0008C3003F48073FB60FB6810237B61122331
:1037F000BB610023FB6100233B6203237B6207F173
:103800001403194605480BF029FC00BF2837BD46B4
:1038100080BD00BF00340140000C0246002002427F
:1038200080B58CB000AF786007F11C0300221A60ED
:103830005A609A60DA601A617B681B685A4A934240
:103840001FD15A4BD3F88C30584A43F01003C2F8BA
:103850008C30564BD3F88C3003F01003BB61BB693E
:103860002023FB6102233B6200237B620023BB62B7
:103870000223FB6207F11C0319464D480BF0EEFBD7
:103880008DE07B681B684B4A93421FD1474BD3F8AE
:103890008C30464A43F48073C2F88C30434BD3F8E3
:1038A0008C3003F480737B617B690123FB6102230D
:1038B0003B6200237B620023BB620223FB6207F1B1
:1038C0001C0319463C480BF0C9FB68E07B681B6889
:1038D0003A4A93423ED1354BD3F88C30334A43F4C5
:1038E0008073C2F88C30314BD3F88C3003F4807382
:1038F0003B613B692D4BD3F88C302C4A43F00203DB
:10390000C2F88C30294BD3F88C3003F00203FB60F3
:10391000FB682023FB6102233B6200237B620023C0
:10392000BB620323FB6207F11C03194622480BF01C
:1039300095FB0123FB6102233B6200237B62002392
:10394000BB620323FB6207F11C0319461C480BF002
:1039500085FB24E07B681B681A4A93421FD1134BF6
:10396000D3F88C30114A43F00203C2F88C300F4B6D
:10397000D3F88C3003F00203BB60BB684FF4804384
:10398000FB6102233B6200237B620023BB620E23A8
:10399000FB6207F11C03194609480BF05FFB00BFEF
:1039A0003037BD4680BD00BF00040040000C024619
:1039B00000100242000C004000200242003401408E
:1039C000000402420040014080B500AF224B234A70
:1039D0001A60214B4FF4E1325A601F4B00229A606B
:1039E0001D4B0022DA601C4B00221A611A4B0C227C
:1039F0005A61194B00229A61174B0022DA61164B6B
:103A000000221A62144B00225A62134B00229A625F
:103A1000114818F04FF80346002B01D0FEF7DEFBEB
:103A200000210D4818F005FD0346002B01D0FEF7DC
:103A3000D5FB0021084818F03AFD0346002B01D0C1
:103A4000FEF7CCFB044818F0BBFC0346002B01D06A
:103A5000FEF7C4FB00BF80BDFC192A2000380140DE
:103A600080B500AF224B234A1A60214B4FF4E1325C
:103A70005A601F4B00229A601D4B0022DA601C4BDB
:103A800000221A611A4B0C225A61194B00229A61CA
:103A9000174B0022DA61164B00221A62144B0022E7
:103AA0005A62134B00229A62114818F003F8034639
:103AB000002B01D0FEF792FB00210D4818F0B9FC55
:103AC0000346002B01D0FEF789FB0021084818F0BF
:103AD000EEFC0346002B01D0FEF780FB044818F0F3
:103AE0006FFC0346002B01D0FEF778FB00BF80BDC2
:103AF000901A2A200048004080B500AF244B254A88
:103B00001A60234B4FF4E1325A60214B00229A6035
:103B10001F4B0022DA601E4B00221A611C4B0C2244
:103B20005A611B4B00229A61194B0022DA61184B33
:103B300000221A62164B00225A62154B00229A622A
:103B4000002300220021124818F0D1FB0346002B6D
:103B500001D0FEF743FB00210D4818F06AFC034634
:103B6000002B01D0FEF73AFB0021094818F09FFC1A
:103B70000346002B01D0FEF731FB054818F020FC6E
:103B80000346002B01D0FEF729FB00BF80BD00BF1C
:103B9000241B2A200064004080B5C8B000AF07F5A0
:103BA0009073A3F58E73186007F5867300221A6070
:103BB0005A609A60DA601A6107F12803E022002156
:103BC000184649F066FB07F59073A3F58E731B68E2
:103BD0001B68B84A93424ED14FF001024FF00003E8
:103BE000C7E90A230023BB6707F12803184611F031
:103BF000D3FE0346002B01D0FEF7F0FAAE4BD3F80C
:103C0000A430AD4A43F48043C2F8A430AA4BD3F8A1
:103C1000A43003F480437B627B6AA74BD3F88C30DB
:103C2000A54A43F04003C2F88C30A34BD3F88C3044
:103C300003F0400207F59073A3F580731A6007F54F
:103C40009073A3F580731B684FF4C063C7F80C3101
:103C50000223C7F810310023C7F814310023C7F836
:103C600018310723C7F81C3107F5867319469348A6
:103C70000BF0F4F919E107F59073A3F58E731B6847
:103C80001B688F4A934240F084804FF004024FF04B
:103C90000003C7E90A230023C7F8803007F128038F
:103CA000184611F079FE0346002B01D0FEF796FA74
:103CB000814BD3F89C30804A43F48023C2F89C3077
:103CC0007D4BD3F89C3003F4802207F59073A3F565
:103CD00082731A6007F59073A3F582731B68764BA5
:103CE000D3F88C30744A43F00203C2F88C30724B24
:103CF000D3F88C3003F0020207F59073A3F58473B8
:103D00001A6007F59073A3F584731B686A4BD3F8A8
:103D10008C30694A43F00403C2F88C30664BD3F808
:103D20008C3003F0040207F59073A3F586731A60D4
:103D300007F59073A3F586731B684FF48063C7F88B
:103D40000C310223C7F810310023C7F814310023C7
:103D5000C7F818310723C7F81C3107F586731946D1
:103D600058480BF07BF92023C7F80C310223C7F821
:103D700010310023C7F814310023C7F81831072386
:103D8000C7F81C3107F5867319464F480BF066F9E2
:103D90008BE007F59073A3F58E731B681B684B4A85
:103DA000934240F082804FF000524FF00003C7E989
:103DB0000A230023C7F88C3007F12803184611F0B6
:103DC000EBFD0346002B01D0FEF708FA3A4BD3F87F
:103DD0009C30394A43F00073C2F89C30364BD3F81C
:103DE0009C3003F0007207F59073A3F588731A6096
:103DF00007F59073A3F588731B682F4BD3F88C30AD
:103E00002D4A43F01003C2F88C302B4BD3F88C3082
:103E100003F0100207F59073A3F58A731A6007F593
:103E20009073A3F58A731B68234BD3F88C30224A16
:103E300043F40073C2F88C301F4BD3F88C3003F47A
:103E4000007207F59073A3F58C731A6007F59073F1
:103E5000A3F58C731B681223C7F80C310223C7F833
:103E600010310023C7F814310023C7F81831072395
:103E7000C7F81C3107F58673194615480BF0EEF8A4
:103E80001023C7F80C310223C7F810310023C7F8FC
:103E900014310023C7F818310723C7F81C3107F580
:103EA000867319460B480BF0D9F800BF07F59077D9
:103EB000BD4680BD00380140000C02460018024299
:103EC0000048004000040242000802420064004032
:103ED000001002420024024280B400AF00BFBD4681
:103EE0005DF8047B70470000DFF834D007F09CFCDD
:103EF000002103E00B4B5B58435004310A480B4B45
:103F000042189A42F6D30A4A02E0002342F8043BE0
:103F1000084B9A42F9D349F091FAFEF753F8FEE7BD
:103F200000002F207C240508002823201C292320A2
:103F300020102A20B40A2C20FEE780B400AF00BF76
:103F4000BD465DF8047B704780B500AF03F0FEFD11
:103F500003F0C6FD00BF80BD80B582B000AF7860C1
:103F600003F00AFE00BF0837BD4680BD80B483B0B1
:103F700000AF7860044A7B681A607B6818460C378B
:103F8000BD465DF8047B704740FE040880B582B0F2
:103F900000AF78607868FFF7E9FF0C21786847F098
:103FA000DCFD7B6818460837BD4680BD80B584B00F
:103FB00000AF78600B46FB70FB78002B11D07B685C
:103FC0001B6810331B687868984702467B689B68BB
:103FD000D31AFB607B685A68FB681A447B685A6096
:103FE00008E07B681B6810331B68786898470246B6
:103FF0007B689A6000BF1037BD4680BD80B483B037
:1040000000AF78607B685B6818460C37BD465DF88A
:10401000047B704780B483B000AF786039607B6800
:104020003A685A6000BF0C37BD465DF8047B7047A4
:1040300080B483B000AF78600B4B1B680A4A43F032
:1040400080731360094B1A680849094B13430B60CE
:10405000084B1B68074A43F00103136000BF0C378D
:10406000BD465DF8047B7047FCED00E0B01F00E04A
:1040700055CEACC5001000E080B485B000AFF8604C
:10408000B9607A603B607A68BB68D21A3B685B08AB
:104090001A443B68B2FBF3F318461437BD465DF88B
:1040A000047B704780B483B000AF7860034B1B681B
:1040B00018460C37BD465DF8047B7047041000E0DD
:1040C00080B584B000AF78600B46FB70FB78002BA6
:1040D00011D07B681B6810331B68786898470246CC
:1040E0007B689B68D31AFB607B685A68FB681A443C
:1040F0007B685A6008E07B681B6810331B6878682F
:10410000984702467B689A6000BF1037BD4680BD65
:1041100080B582B000AF7860054A7B681A607B6822
:104120001846FFF723FF7B6818460837BD4680BD59
:1041300018FE040880B582B000AF78607868FFF799
:10414000E7FF0C21786847F008FD7B6818460837C0
:10415000BD4680BD80B483B000AF7860044A7B6800
:104160001A607B6818460C37BD465DF8047B7047C3
:1041700080FE040880B582B000AF78607868FFF7F1
:10418000E9FF0421786847F0E8FC7B6818460837A7
:10419000BD4680BD80B582B000AF786001220821A5
:1041A00007480BF033F900220721112009F0C8F865
:1041B000112009F0DFF800BF0837BD4680BD00BF01
:1041C0000010024280B58AB002AFF860B9607A6030
:1041D00007F1100300221A605A609A60DA602E4BD1
:1041E0001B78DBB2002B14BF01230023DBB2002BB2
:1041F0004CD0294B00221A7007F11002642300935F
:104200001023822125480BF0BBFA0346002B14BF74
:1042100001230023DBB2002B01D0002337E03B7CDD
:10422000482B31D11E4B00221A60FB7C03F00F0398
:104230001B4A13601A4B1B681B02194A1360BB7C94
:104240001A46174B1B681343154A1360154B00227F
:104250001A607B7D03F00F03124A1360114B1B6839
:104260001B02104A13603B7D1A460E4B1B6813431A
:104270000C4A13600A4B1A68BB681A60094B1A682B
:104280007B681A60012302E0002300E00023184647
:104290002037BD4680BD00BFB81B2A2034132A201A
:1042A000BC1B2A20C01B2A2080B483B000AF034669
:1042B000FB80FB88402B02D1044B01221A7000BF07
:1042C0000C37BD465DF8047B704700BFB81B2A2041
:1042D00080B582B000AF7860054A7B681A607B6861
:1042E0001846FFF737FF7B6818460837BD4680BD84
:1042F00068FE040880B582B000AF78607868FFF788
:10430000E7FF0421786847F028FC7B6818460837E7
:10431000BD4680BD80B400AF00BFBD465DF8047BE4
:104320007047000080B483B000AF0346FB71FB7997
:10433000032B0CD801A252F823F000BF4D43000814
:104340004D4300084D4300084D43000800BF00BF27
:104350000C37BD465DF8047B704700BF80B483B066
:1043600000AF0346FB71FB79032B0CD801A252F876
:1043700023F000BF854300088543000885430008FB
:104380008543000800BF00BF0C37BD465DF8047BC5
:10439000704700BF80B483B000AF0346FB71FB7968
:1043A000032B0CD801A252F823F000BFBD43000834
:1043B000BD430008BD430008BD43000800BF00BF67
:1043C0000C37BD465DF8047B704700BF80B483B0F6
:1043D00000AF7860044A7B681A607B6818460C3727
:1043E000BD465DF8047B70478C0B050880B582B034
:1043F00000AF78607868FFF7E9FF8821786847F0B8
:10440000ACFB7B6818460837BD4680BD80B400AF62
:10441000034B1B681846BD465DF8047B704700BF20
:1044200014012C2080B483B000AF78600B46FB7081
:104430007B68FA7883F87C207B68012283F87D20F2
:1044400000BF0C37BD465DF8047B704780B582B075
:1044500000AF78600B467B8013463B800C4B1B887B
:104460007A889A4204D30B4B1B883A889A4205D229
:10447000094B0A4AA5210A4848F004FD094A7B88ED
:104480001380094A3B88138000BF0837BD4680BDB2
:1044900010012C200E012C2008E004086CE0040818
:1044A000B0E004080C012C200A012C2080B582B059
:1044B00000AF78607B6893F87E30002B09D07B6872
:1044C0005A687B685B681B681B6810469847034600
:1044D00000E0002318460837BD4680BD80B582B095
:1044E00000AF786078681CF00FFE7B681B68BC33F7
:1044F0001B687868984700BF0837BD4680BD80B408
:1045000083B000AF78603960002318460C37BD4691
:104510005DF8047B70470000B0B584B000AFF86070
:10452000B9607A603B60BB68002B06D1194B1A4A10
:1045300040F20131194848F0A5FCFB68BA681A64DA
:10454000FB687A685A647B68002B14BF0123002340
:10455000DAB2134B1A70FB681B6890331B6839681A
:10456000F8689847FB68DB69002B0ED0FB68DD69B3
:10457000FB68DB691B681C68F86800F09DF803465F
:10458000084A128819462846A04700BF1037BD4682
:10459000B0BD00BFF8E0040830E10408B0E0040852
:1045A00008012C200C012C2080B483B000AF78606F
:1045B00039607B683A689A643B68002B14BF01231A
:1045C0000023DAB2034B1A7000BF0C37BD465DF80A
:1045D000047B704707012C2080B483B000AF786063
:1045E0000B467B8000BF0C37BD465DF8047B7047EF
:1045F00080B483B000AF786039607B683A681A6134
:1046000000BF0C37BD465DF8047B704780B483B0B3
:1046100000AF78600B46FB707B68FA7883F87420F3
:1046200000BF0C37BD465DF8047B704780B483B093
:1046300000AF7860002318460C37BD465DF8047B58
:10464000704780B582B000AF78600B467B807B6896
:10465000DB6B002B04D07B68DB6B7A8810469847B5
:1046600000BF0837BD4680BD80B483B000AF78601E
:104670004FF6FF7318460C37BD465DF8047B704754
:1046800080B582B000AF78607B685A687B685B68F1
:104690001B6818331B6810469847034618460837AE
:1046A000BD4680BD80B483B000AF786000BF0C37DA
:1046B000BD465DF8047B704780B582B000AF78607E
:1046C0000E4B1B78002B0CD07B681B6834331B68A7
:1046D0007868984702467B681B6C9A4201D1012397
:1046E00000E00023002B02D07B685B6C01E07B685C
:1046F0001B6C18460837BD4680BD00BF08012C2042
:1047000080B485B000AF78607B6893F87C207B68CC
:1047100093F838309A4211D0144B1B78002B1ED1DD
:10472000134B1B88BB81134B1A88114B1A80114AFB
:10473000BB8913800D4B01221A7010E00B4B1B78C4
:10474000002B0CD00A4B1B88FB810A4B1A88084BA4
:104750001A80084AFB891380044B00221A7000BF9C
:104760001437BD465DF8047B704700BF06012C205E
:104770000E012C2010012C2080B483B000AF786093
:1047800000BF0C37BD465DF8047B704780B483B032
:1047900000AF786000BF0C37BD465DF8047B704702
:1047A00080B483B000AF786000BF0C37BD465DF8C1
:1047B000047B704780B582B000AF7860054A7B68A3
:1047C0001A607B681846FFF701FE7B6818460837B9
:1047D000BD4680BD3412050880B582B000AF786058
:1047E0007868FFF7E7FFC821786847F0B6F97B687B
:1047F00018460837BD4680BD80B582B000AF7860EE
:104800007B6818461BF068FE00BF0837BD4680BDB8
:1048100080B582B000AF78607B6818461BF0A2FFBD
:1048200000BF0837BD4680BD80B582B000AF78605C
:10483000054A7B681A607B681846FFF7BBFF7B68F8
:1048400018460837BD4680BD4C03050880B582B0C8
:1048500000AF78607868FFF7E7FFC821786847F015
:104860007CF97B6818460837BD4680BD80B582B0AC
:1048700000AF78607B681846FFF7BEFF00BF0837BF
:10488000BD4680BD80B582B000AF78607B681846B9
:1048900003F078FC7B68C8331846FFF7C9FB7A68D9
:1048A0007B68C83319461046FFF7A2FE7B680121DA
:1048B0001846FFF7ABFE00BF0837BD4680BD80B588
:1048C00082B000AF78607B68184603F019FD03469C
:1048D00018460837BD4680BD80B582B000AF78600D
:1048E00039607B683968184603F018FD00BF083747
:1048F000BD4680BD80B582B000AF786039607B680E
:104900003968184603F020FD00BF0837BD4680BD5A
:1049100080B584B000AFF860B9607A603B60F86839
:104920003B687A68B96803F01DFD034618461037E6
:10493000BD4680BD80B582B000AF78607B68184608
:1049400003F054FC00BF0837BD4680BD80B582B07F
:1049500000AF78607B68184603F05CFC00BF083746
:10496000BD4680BD80B582B000AF78607B681846D8
:1049700003F061FC00BF0837BD4680BD80B582B042
:1049800000AF78607B68184603F066FC00BF08370C
:10499000BD4680BD80B582B000AF78607B681846A8
:1049A00003F088FC034618460837BD4680BD80B535
:1049B00082B000AF78607B68184603F088FC00BFC7
:1049C0000837BD4680BD80B582B000AF78607B6897
:1049D000002B07D0FFF71AFD0346012118461CF0F3
:1049E000BBFB06E0FFF712FD0346002118461CF052
:1049F000B3FB012318460837BD4680BD80B582B0A1
:104A000000AF7860084A7B681A607B68C833184634
:104A1000FFF77EFB7B681846FFF706FF7B681846AA
:104A20000837BD4680BD00BF98FE040880B582B03F
:104A300000AF78607868FFF7E1FFD421786847F02D
:104A40008CF87B6818460837BD4680BD80B483B0BB
:104A500000AF78607B6800221A607B6818460C37CC
:104A6000BD465DF8047B704780B483B000AF7860CA
:104A7000044A7B681A607B6818460C37BD465DF8AF
:104A8000047B7047C8FF040880B582B000AF78602F
:104A90007868FFF7E9FF0421786847F05EF87B68E3
:104AA00018460837BD4680BD80B483B000AF78603B
:104AB0007B681B7A18460C37BD465DF8047B70474F
:104AC00080B483B000AF78607B685B6918460C37B0
:104AD000BD465DF8047B704780B483B000AF78605A
:104AE0007B6893F8403018460C37BD465DF8047B70
:104AF0007047000080B483B000AF7860044A7B68E0
:104B00001A607B6818460C37BD465DF8047B704719
:104B1000C8FF040880B582B000AF78607B68184693
:104B2000FFF7E8FF204A7B681A607B6800225A6121
:104B30007B6800229A617B680022DA617B68002230
:104B40001A627B6800225A627B6800229A627B6844
:104B50000022DA627B6800221A637B6800225A63B3
:104B60007B6800229A637B680022DA637B680022FC
:104B700083F840207B6800221A617B680022DA609B
:104B80007B6800225A607B6800229A600022002124
:104B9000012017F09EFE0346044A13607B68184606
:104BA0000837BD4680BD00BF84FF0408F81E2A20D8
:104BB00080B586B000AFF860B9607A603B60FB6892
:104BC0001B6B002B08D0FB685A6BFB68DB6BB9686A
:104BD000CB1A13447B6104E0FB68DA6ABB681344B8
:104BE0007B613A687968786948F05BFB0346184650
:104BF0001837BD4680BD80B487B000AF786039609B
:104C00007B681B6B002B24D07B68DB6B3A68D31A64
:104C1000FB607B685A6BFB6813441B7819467B6802
:104C20005A6BFB68013313441B781B0241EA0302F1
:104C30007B68596BFB6802330B441B781B041A43D7
:104C40007B68596BFB6803330B441B781B061343CB
:104C500029E07B68DA6A3B6813447B6100233B618F
:104C60007B691B78DBB21A463B6913433B617B6966
:104C700001331B78DBB21B021A463B6913433B61CD
:104C80007B6902331B78DBB21B041A463B69134372
:104C90003B617B6903331B78DBB21B061A463B6919
:104CA00013433B613B6918461C37BD465DF8047BE6
:104CB000704780B487B000AF786039607B681B6B49
:104CC000002B13D07B68DB6B3A68D31AFB607B68E0
:104CD0005A6BFB6813441B7819467B685A6BFB6858
:104CE000013313441B781B020B4317E07B68DA6A1D
:104CF0003B6813447B6100233B617B691B78DBB21B
:104D00001A463B6913433B617B6901331B78DBB275
:104D10001B021A463B6913433B613B6918461C372B
:104D2000BD465DF8047B704780B584B000AFF86085
:104D3000B9607A60FB681B6B002B33D0FB689B6B00
:104D40007A689A4209D9FB68092283F84020194BF6
:104D5000194AB121194848F095F8FB681A6BFB68AD
:104D60001B6B1B680C331B68B96810469847FB68BF
:104D7000186BFB681B6B1B6810331B68FA68516B60
:104D80007A689847034683F00103DBB2002B03D017
:104D9000FB680D2283F84020FB68BA68DA63FB6881
:104DA0005B6B03E0FB68DA6ABB6813441846103794
:104DB000BD4680BD80E1040894E10408D8E1040800
:104DC00080B58EB004AFF860B96011461A460B4644
:104DD000FB801346BB80FB685B69002B05D14E4B03
:104DE0004E4AC3214E4848F04DF8FB689B690822A3
:104DF0001946F868FFF798FFFB689B691946F86841
:104E0000FFF757FF3862FB689B6902331946F86861
:104E1000FFF74FFFF861FB689B6904331946F86898
:104E2000FFF7E9FEB86143F23003FB8246F26433D8
:104E3000BB82FB689A69BB69134403F10802FB68F3
:104E40009B6A9A4255D23B6A43F23002934226D182
:104E5000FB6946F26432934221D1BB69002B1ED01C
:104E6000FB689B6903F10802FB689A61FB689B6918
:104E7000BA691946F868FFF757FF38613B6B029330
:104E8000BB880193FB880093BB68BA693969F868ED
:104E900000F08EFAFB685B695A1CFB685A610023BC
:104EA00087F82730FB689A69BB691A44FB689A61E6
:104EB000BB69002B05D1FB689B6903F10802FB6805
:104EC0009A61FB689B69013323F00102FB689A61D8
:104ED000FB689A69FB685B6A9A4214D1FB680122FD
:104EE0005A61FB681A6AFB689A61012387F82730C8
:104EF00009E0FB6801225A61FB681A6AFB689A6143
:104F0000012387F8273097F8273083F00103DBB2BD
:104F100018462837BD4680BD28E2040874E204081C
:104F2000D8E1040880B586B000AF78607B685B6923
:104F3000002B05D1374B384AF721384847F0A2FFFC
:104F40007B689B69082219467868FFF7EDFE7B684D
:104F50009B69043319467868FFF74DFE786143E09A
:104F60007B689A697B69134403F108027B689A6144
:104F70007B689B69013323F001027B689A617B683F
:104F80005B695A1C7B685A617B689B6908221946D9
:104F90007868FFF7C9FE7B689B6919467868FFF758
:104FA00088FE38617B689B69023319467868FFF791
:104FB00080FEF8607B689B69043319467868FFF7C8
:104FC0001AFE786143F230037B8146F264333B8101
:104FD0003B6943F23002934206D1FB6846F26432E9
:104FE000934201D1012311E07B689A697B691344E4
:104FF00003F108027B689B6A9A42B1D37B68012265
:105000005A617B681A6A7B689A61002318461837D0
:10501000BD4680BD28E20408D0E20408D8E10408B7
:1050200080B584B000AFF860B9607A60FB68BA6898
:10503000DA62FB687A689A62FB6800221A63F86891
:1050400000F034F800BF1037BD4680BD80B582B097
:1050500000AF786039607B683A681A637B68002229
:10506000DA623B681B6808331B6838689847024659
:105070007B689A62786800F019F800BF0837BD466F
:1050800080BD80B483B000AF78607B681B6B002B61
:1050900003D17B68DB6A002B01D0012300E00023F1
:1050A00018460C37BD465DF8047B704780B58AB062
:1050B00000AF78607B6800229A617B68002283F8E9
:1050C0004020482200217868FFF72EFE7B6899690E
:1050D0000423A54A7868FFF76BFD0346002B14BF35
:1050E00001230023DBB2002B0AD07B68032283F864
:1050F00040209E4B9E4A40F23F119E4847F0C2FE20
:105100007B689B6903F108027B689A617B689969F7
:105110000423994A7868FFF74BFD0346002B14BF20
:1051200001230023DBB2002B0AD07B68042283F822
:105130004020924B8E4A40F247118E4847F0A2FE23
:105140007B689B691A1D7B689A617B689969042357
:105150008B4A7868FFF72CFD0346002B14BF012310
:105160000023DBB2002B0AD07B68052283F84020A5
:10517000844B7F4A4FF4A7717E4847F083FE7B68DB
:105180009B69043319467868FFF735FDF8617B6841
:105190009B69BB61FB69002B06D17B4B744A4FF4C2
:1051A000AA71744847F06EFE012387F827307B68A8
:1051B0009B6908337B610423744A79697868FFF737
:1051C000F7FC0346002B14BF01230023DBB2002BA6
:1051D00006D07B68062283F84020002387F827301A
:1051E0007B6904337B610423694A79697868FFF736
:1051F000DFFC0346002B14BF01230023DBB2002B8E
:1052000006D07B68072283F84020002387F82730E8
:1052100097F82730002B28D07B6908337B617969A8
:105220007868FFF7E8FC03465A4AA2FB03239A0971
:105230007B685A607B69103319467868FFF7DBFC9E
:1052400002467B689A607B69203319467868FFF7CD
:10525000D2FC02467B68DA607B69243319467868A1
:10526000FFF7C9FC02467B681A61BA69FB691344FF
:1052700008333B620C22396A7868FFF755FD11E06C
:105280003B6A043319467868FFF7B5FC03460833D8
:10529000FB603A6AFB6813443B620C22396A786807
:1052A000FFF742FD3B6A03F1080104233A4A78689C
:1052B000FFF77EFC0346002B0BD07B6893F8403051
:1052C000002B06D17B689B6A3A6A9A4201D201237D
:1052D00000E00023002BD3D17B6893F84030002BF3
:1052E00004D07B680A2283F840205EE03B6A03F129
:1052F0000C027B689A613B6A043319467868FFF7B1
:105300007AFC02463B6A134403F108027B685A6246
:105310003B6A043319467868FFF76DFC034608338F
:105320003B613A6A3B6913443B620422396A7868FC
:10533000FFF7FAFC0423194A396A7868FFF738FC4A
:105340000346002B0CBF01230023DBB2002B27D028
:105350007B683A6ADA617B6801225A617B689A69E4
:105360007B681A6221E000BF04E304080CE3040830
:1053700028E30408D8E1040858E3040860E30408BB
:1053800078E3040880E3040898E30408A4E304082D
:10539000ACE30408D34D6210B4E30408BCE3040892
:1053A0007B680B2283F8402000BF2837BD4680BDB4
:1053B00080B584B000AFF860B9607A603B607B680C
:1053C000002B66D03B68002B64D0344B03221A615B
:1053D000FB68DB68314A1360304B1B6803F00F0336
:1053E000002B06D02D4B1B6823F00F0310332B4AE4
:1053F00013602A4B1B694FF4487202FB03F3274AE0
:105400005360264B1B681B09244AD360FB681B6949
:1054100003F00F03002B06D0FB681B6903F00F039A
:10542000C3F1100300E000231C4A93601C4A3B6850
:1054300013603B687A68B9681A4800F0DBF9FB68CA
:105440005B6C194A1360174800F056FC0346174A74
:105450001360164B1B68022B0CBF01230023DBB229
:10546000002B06D0124B1B684FF0FF31184617F087
:10547000B9FA0E4B1B68012B14BF01230023DBB2CA
:10548000002BE0D10B4B00221A600B4B00221A605C
:1054900000E000BF1037BD4680BD00BF041F2A20BA
:1054A000C41B2A2030142A20E41B2A20DC1B2A20BB
:1054B000F81E2A20D41B2A20001F2A2080B58AB07B
:1054C00000AFF860B9607A603B60FB689B690822B6
:1054D0001946F868FFF728FCFB689B6904331946F6
:1054E000F868FFF788FB7862FB689B6908337A6A83
:1054F0001946F868FFF718FC3862764B03221A61E8
:10550000FB68DB68734A1360724B1B6803F00F0380
:10551000002B06D06F4B1B6823F00F0310336D4A2E
:1055200013606C4B1B694FF4487202FB03F3694A2A
:105530005360684B1B681B09664AD360BB68B3F9AC
:1055400002301A46634B5A61BB68FB61FB69B3F9D1
:1055500002309AB2FB69B3F906309BB213449BB296
:105560001BB21A46FB681B699A420DD2BB68BB612D
:10557000BB69B3F902309AB2BB69B3F906309BB28A
:1055800013449BB21BB201E0FB681B69514A936153
:10559000BB68B3F900301A464E4BDA61BB687B61D9
:1055A0007B69B3F900309AB27B69B3F904309BB2DE
:1055B00013449BB21BB21A46FB68DB689A420DD2B9
:1055C000BB683B613B69B3F900309AB23B69B3F900
:1055D00004309BB213449BB21BB201E0FB68DB6852
:1055E0003C4A13623B4BDB691B093A4A5362394B15
:1055F0001B6A0F331B09374A9362364B9A6A354B45
:105600005B6AD31A334AD362324BDB6903F00F0370
:10561000304A13632F4B5B6903F00F032D4A53632A
:105620002C4B1B6A03F00F03002B06D0294B1B6A7F
:1056300003F00F03C3F1100300E00023254A936336
:10564000244B9B6903F00F03002B06D0214B9B6971
:1056500003F00F03C3F1100300E000231D4AD363DE
:105660001D4A3B6813601D4A7B6813607B687A6A39
:10567000396A1B4800F0BEF8FB685B6C194A13607E
:10568000174800F039FB0346174A1360164B1B6896
:10569000022B0CBF01230023DBB2002B06D0134BDF
:1056A0001B684FF0FF31184617F09CF90E4B1B6832
:1056B000012B14BF01230023DBB2002BE0D10C4BE4
:1056C00000221A600B4B00221A600123184628376B
:1056D000BD4680BD041F2A20F01B2A20C41B2A209F
:1056E00030142A20E41B2A20DC1B2A20F81E2A2042
:1056F000D41B2A20001F2A2080B584B000AFF86098
:10570000B9607A607B80034B034A4FF4FC71034815
:1057100047F0B8FBC4E30408C8E30408D8E1040870
:1057200080B584B000AF786039603B68002B01D150
:1057300001233B607B681B682C331B6878689847A3
:1057400002463B6893428CBF01230023DBB2002B4F
:1057500006D07B681B682C331B68786898473860D4
:105760007B68DA693B68013B1B0113440833FB602B
:105770001022F9687868FFF7D7FAFB6808331946F2
:105780007868FFF738FA02467B681B6A13441A1FD1
:105790007B689A617B683A685A6100BF1037BD46E2
:1057A00080BD80B483B000AF78607B689B6818468A
:1057B0000C37BD465DF8047B704780B483B000AF02
:1057C00078600B46FB7000BF0C37BD465DF8047B6C
:1057D000704790B482B000AF786039603A687B68F7
:1057E000144604330FCB84E80F0000BF0837BD46D2
:1057F00090BC704780B588B002AFF860B9607A603D
:105800003B604B4B00221A604A4B00221A604A4B05
:1058100000221A60494B00221A60BB68484A136094
:10582000484A7B681360484B00221A60474B0022AD
:105830001A6000237B6151E045497A691346DB0019
:105840009B1A9B000B4400221A7041497A69134647
:10585000DB009B1A9B000B44083300221A603C4972
:105860007A691346DB009B1A9B000B440C33002221
:105870001A6037497A691346DB009B1A9B000B4478
:10588000103300221A6032497A691346DB009B1AF2
:105890009B000B44143300221A602D497A69134689
:1058A000DB009B1A9B000B44183300221A70284916
:1058B0007A691346DB009B1A9B000B4419330022C4
:1058C0001A7023497A691346DB009B1A9B000B442C
:1058D0001A3300221A707B6901337B617B69012BCB
:1058E000AAD91B4B01225A761A4B5B6B002B02D0B4
:1058F000174B01221A76104B1A6815491346DB0024
:105900009B1A9B000B4404331968124BDA68134648
:105910005B001344DB0100930B464FF45042B9681F
:10592000F8680AF068FC002318461837BD4680BDA9
:10593000D81B2A20FC1E2A20E81B2A20C81B2A204C
:10594000D01B2A20CC1B2A20F41E2A20EC1B2A2044
:1059500004282320041F2A2080B485B000AF78607B
:1059600039603B685B68012B2AD13B68DB6803F038
:105970000F03002B07D03B68DB6823F00F0303F114
:1059800010023B68DA603B689B6803F00F03002B52
:1059900007D03B689B6823F00F0303F110023B68BC
:1059A0009A603B68DB681B09FB603B689B681B09CE
:1059B000BB60FB68BA6802FB03F3244A13603FE054
:1059C0003B685B68022B1BD13B68DB6803F00F036D
:1059D000002B07D03B68DB6823F00F0303F11002B4
:1059E0003B68DA603B689B6803F00703002B07D035
:1059F0003B689B6823F0070303F108023B689A6049
:105A00003B685B68002B1BD13B68DB6803F0070336
:105A1000002B07D03B68DB6823F0070303F1080283
:105A20003B68DA603B689B6803F00703002B07D0F4
:105A30003B689B6823F0070303F108023B689A6008
:105A400000BF1437BD465DF8047B7047E01B2A2079
:105A500080B584B000AF78603960144B1A683B6839
:105A60001344124A1360114B1A68114B1B689A4277
:105A700018D2104B1A683B6813440E4A13600C4B43
:105A80001A680A4B1B68D31AFB600A4B1B6819463D
:105A9000FB68B3F5504F28BF4FF450431A4678685F
:105AA0000AF032FD00BF1037BD4680BDC81B2A205A
:105AB000CC1B2A20D01B2A2080B584B000AFF86010
:105AC000B9607A60764B1B681033754A1360754B6A
:105AD0001A68754B196875481346DB009B1A9B00C2
